{
  "contractName": "HelloWorld",
  "abi": [
    {
      "inputs": [],
      "payable": false,
      "stateMutability": "nonpayable",
      "type": "constructor"
    },
    {
      "constant": true,
      "inputs": [],
      "name": "yourName",
      "outputs": [
        {
          "internalType": "bytes32",
          "name": "",
          "type": "bytes32"
        }
      ],
      "payable": false,
      "stateMutability": "view",
      "type": "function"
    },
    {
      "constant": false,
      "inputs": [
        {
          "internalType": "string",
          "name": "nm",
          "type": "string"
        }
      ],
      "name": "setName",
      "outputs": [],
      "payable": false,
      "stateMutability": "nonpayable",
      "type": "function"
    }
  ],
  "bytecode": "0x608060405234801561001057600080fd5b507f556e6b6e6f776e00000000000000000000000000000000000000000000000000600081905550610166806100476000396000f3fe608060405234801561001057600080fd5b50600436106100365760003560e01c8063c47f00271461003b578063d97d6630146100f6575b600080fd5b6100f46004803603602081101561005157600080fd5b810190808035906020019064010000000081111561006e57600080fd5b82018360208201111561008057600080fd5b803590602001918460018302840111640100000000831117156100a257600080fd5b91908080601f016020809104026020016040519081016040528093929190818152602001838380828437600081840152601f19601f820116905080830192505050505050509192919290505050610114565b005b6100fe610128565b6040518082815260200191505060405180910390f35b600060208201519050806000819055505050565b6000805490509056fea265627a7a7231582015ab1a78f849a6e0f62c168ccbe43a189677ba9820e45f7163d552fa594f6cc664736f6c63430005100032",
  "source": "pragma solidity ^0.5.16; \r\n\r\ncontract HelloWorld {\r\n    \r\n    // Correction 1: Renommer la variable de stockage pour éviter la collision avec la fonction.\r\n    bytes32 private _yourName; \r\n    \r\n    // Fonction getter (view) pour la lecture de la variable.\r\n    function yourName() public view returns (bytes32) {\r\n        return _yourName;\r\n    }\r\n\r\n    // Le constructeur est exécuté une seule fois\r\n    constructor() public {\r\n        // Initialisation : Conversion de \"Unknown\" en bytes32.\r\n        _yourName = \"Unknown\";\r\n    }\r\n\r\n    // Permet de définir (modifier) la valeur de yourName\r\n    function setName(string memory nm) public {\r\n        // Correction 2: Utiliser la conversion autorisée pour la version 0.5.16.\r\n        // Convertir le string en bytes, puis le prendre comme bytes32.\r\n        bytes32 nameBytes;\r\n        // La longueur du string (en bytes) doit être <= 32.\r\n        assembly {\r\n            nameBytes := mload(add(nm, 32)) \r\n        }\r\n        _yourName = nameBytes;\r\n    }\r\n}",
  "sourcePath": "C:\\Users\\lenovo\\Desktop\\M2\\Blockchain\\TPs\\TP 8\\hello_world\\contracts\\HelloWorld.sol",
  "compiler": {
    "name": "solc",
    "version": "0.5.16+commit.9c3226ce.Emscripten.clang"
  },
  "schemaVersion": "3.4.16",
  "updatedAt": "2025-12-07T14:47:10.459Z",
  "networkType": "ethereum",
  "devdoc": {
    "methods": {}
  },
  "userdoc": {
    "methods": {}
  }
}